:020000040800F2
:1000000000000220452F0008052E00080D2E0008D4
:10001000152E00081D2E0008252E000800000000E7
:100020000000000000000000000000002D2E00086D
:100030003B2E000800000000492E0008572E000843
:10004000952F0008952F0008952F0008952F000880
:10005000952F0008952F0008952F0008952F000870
:10006000952F0008952F0008952F0008952F000860
:10007000952F0008952F0008952F0008952F000850
:10008000952F0008952F0008952F0008952F000840
:10009000952F0008952F0008952F0008952F000830
:1000A000952F0008952F0008952F0008952F000820
:1000B000952F0008652E0008952F0008952F000841
:1000C000952F0008952F0008952F0008952F000800
:1000D000952F0008792E00088D2E0008952F000816
:1000E000952F0008952F0008952F0008952F0008E0
:1000F000952F0008952F0008952F0008952F0008D0
:10010000952F0008952F0008952F0008952F0008BF
:10011000A12E0008952F0008952F0008952F0008A4
:10012000952F0008952F0008952F0008952F00089F
:10013000952F00080000000000000000952F000827
:10014000952F0008952F0008952F0008952F00087F
:10015000952F0008952F0008952F0008952F00086F
:10016000952F0008952F0008952F0008952F00085F
:10017000952F0008952F0008952F0008000000001B
:1001800000000000952F00080000000000000000A3
:10019000952F00080000000000000000952F0008C7
:1001A000000000000000000000000000952F000883
:1001B000952F0008952F0008952F0008952F00080F
:0401C000952F00086F
:1001D00010B5054C237833B9044B13B10448AFF381
:1001E00000800123237010BD60000020000000008B
:1001F0004C79000808B5034B1BB103490348AFF322
:10020000008008BD00000000640000204C79000858
:10021000034613F8012B002AFBD1181A0138704746
:1002200001F0FF01102A2BDB10F0070F08D010F8A7
:10023000013B013A8B422DD010F0070F42B3F6D1AB
:10024000F0B441EA012141EA014122F007047FF0C4
:1002500000070023F0E80256083C85EA010586EA1B
:10026000010685FA47F5A3FA87F586FA47F6A5FA57
:1002700087F68EB9EED1F0BC01F0FF0102F0070263
:1002800032B110F8013B013A83EA010313B1F8D10E
:100290000020704701387047002D06BF35460338EF
:1002A000073815F0010F07D1013015F4807F02BF28
:1002B000013015F4C03F0130F0BC0138704700BF79
:1002C00053B94AB9002908BF00281CBF4FF0FF31BD
:1002D0004FF0FF3000F088B9ADF1080C6DE904CEA5
:1002E00000F006F8DDF804E0DDE9022304B0704711
:1002F0002DE9F047089D0F4604468C46002B48D157
:100300008A42164661D9B2FA82F34BB1C3F1200298
:1003100001FA03FC20FA02F29E4042EA0C0C9C40D7
:100320004FEA164EB7B2BCFBFEF1220C0EFB11CC0D
:1003300042EA0C4201FB07F0904209D9B21801F1E0
:10034000FF3C80F0EE80904240F2EB800239324474
:10035000121AA4B2B2FBFEF00EFB102244EA0244D1
:1003600000FB07F7A74209D9341900F1FF3280F0EA
:10037000DA80A74240F2D7803444023840EA014094
:10038000E41B00211DB1DC400023C5E90043BDE8AA
:10039000F0878B4206D90DB1C5E90001002108465E
:1003A000BDE8F087B3FA83F1002948D1BB4202D3FC
:1003B000824200F20781841A67EB0302012094460F
:1003C000002DE4D0C5E9004CE1E7002A00F092805E
:1003D000B2FA82F3002B40F0A8808A1A4FEA164E38
:1003E0001FFA86FC0121200CB2FBFEF70EFB172240
:1003F00040EA02420CFB07F0904207D9B21807F11D
:10040000FF3802D2904200F2E2804746121AA4B2AC
:10041000B2FBFEF00EFB102244EA02440CFB00FC8F
:10042000A44507D9341900F1FF3202D2A44500F2E5
:10043000CB801046A4EB0C0440EA0740A2E7C1F1D0
:1004400020068B4022FA06FC4CEA030C07FA01F462
:1004500020FA06F3F7404FEA1C49234300FA01F85B
:100460001FFA8CFEB7FBF9F01C0C09FB107744EA6D
:10047000074400FB0EF7A74202FA01F20AD91CEB6F
:10048000040400F1FF3A80F09B80A74240F298807C
:1004900002386444E41B9FB2B4FBF9F309FB134434
:1004A00047EA044403FB0EFEA64509D91CEB0404ED
:1004B00003F1FF3780F08280A6457FD9023B644478
:1004C00043EA0040A4EB0E04A0FB02E7BC427346E3
:1004D000B94663D360D05DB1B8EB030264EB0904A5
:1004E00004FA06F622FA01F31E43CC40C5E9006483
:1004F00000214CE76208480842EAC1710B0C43EA4C
:1005000000438AB242EA0342B3FBF6F1E407B44681
:100510003746B6461F23B0FBF6F0D21B41EA004136
:1005200061E7614614E7104628E7C3F1200120FA8D
:1005300001F29E4027FA01F19F403A434FEA164EDE
:100540001FFA86FCB1FBFEF70EFB1710110C41EAF7
:10055000004107FB0CF8884504FA03F43AD97118F6
:1005600007F1FF3001D288451FD8A1EB0801B1FB8C
:10057000FEF808FB0CF70EFB181192B242EA01429A
:10058000BA422FD2B21808F1FF31C6D2BA42C4D251
:10059000A8F102013244C0E7F0459CD2BEEB020351
:1005A00067EB0C070138B94695E7A6EB080841440C
:1005B000B81EB1FBFEF808FB0CF7DCE73B467FE713
:1005C000504667E70846FBE63444023832E7023F0C
:1005D00032441BE7A1EB08013846B1FBFEF808FBEB
:1005E0000CF7C8E7414698E7704700BF80B582B076
:1005F00000AF7860012002F041FD00BF0837BD4622
:1006000080BD80B485B000AFF860B96011461A466D
:100610000B46FB711346BB71FB680822DA72FB685C
:100620006422DA60FB68BA681A60FB7903F07F0322
:10063000DAB2FB681A71FB68BA795A72FB683A7EC3
:100640009A72FB680822DA72FB686422DA60FB683F
:1006500000225A71FB6818461437BD465DF8047BCA
:10066000704780B582B000AF7860084611461A46E0
:100670000346FB700B46BB7013467B707B68FA78B1
:100680005A727B68BA789A72BB78012B06D97B685C
:100690005B7943F00803DAB27B685A71786800F03E
:1006A00004F800BF0837BD4680BD80B584B000AFF8
:1006B0007860322002F0E2FC7B68DB7A19467868C9
:1006C00000F05DF9642002F0D9FC3021786800F078
:1006D0003AF9052002F0D2FC3021786800F033F9B5
:1006E000052002F0CBFC3021786800F02CF90120C5
:1006F00002F0C4FC2021786800F025F9012002F006
:10070000BDFC7B685B7943F02003FB73FB7B00221D
:100710001946786800F0F4F87B6804229A717868CA
:1007200000F060F8786800F014F87B680222DA7153
:100730007B68DB7943F00403DBB20022194678685A
:1007400000F0DEF8786800F014F800BF1037BD46FE
:1007500080BD80B582B000AF78600022012178684A
:1007600000F0CEF8022002F089FC00BF0837BD4639
:1007700080BD80B582B000AF786000220221786829
:1007800000F0BEF8022002F079FC00BF0837BD4639
:1007900080BD000080B582B000AF78600B46FB7072
:1007A0001346BB707B689B7ABA789A4203D37B6806
:1007B0009B7A013BBB70BB78094AD25CFB7813443F
:1007C000DBB25BB263F07F035BB2DBB2002219469F
:1007D000786800F095F800BF0837BD4680BD00BFBF
:1007E000A47B000880B582B000AF78607B689B79FD
:1007F00043F00403DAB27B689A717B689B7943F01B
:100800000803DBB200221946786800F079F800BFCF
:100810000837BD4680BD80B582B000AF78607B6888
:100820009B7923F00203DAB27B689A717B689B792B
:1008300043F00803DBB200221946786800F060F844
:1008400000BF0837BD4680BD80B582B000AF78607C
:100850007B689B7943F00203DAB27B689A717B680C
:100860009B7943F00803DBB200221946786800F058
:1008700047F800BF0837BD4680BD80B582B000AFE5
:1008800078607B689B7923F00103DAB27B689A7108
:100890007B689B7943F00803DBB200221946786835
:1008A00000F02EF800BF0837BD4680BD80B582B08D
:1008B00000AF78607B689B7943F00103DAB27B6814
:1008C0009A717B689B7943F00803DBB200221946DA
:1008D000786800F015F800BF0837BD4680BD80B5C8
:1008E00082B000AF78607B680822DA727B68DB7ABE
:1008F0001946786800F043F800BF0837BD4680BD50
:1009000080B584B000AF78600B46FB701346BB70B7
:10091000FB7823F00F03FB73FB781B01BB73FA7B9F
:10092000BB781343DBB21946786800F00CF8BA7B49
:10093000BB781343DBB21946786800F004F800BFB7
:100940001037BD4680BD80B582B000AF78600B46E1
:10095000FB707B68DA7AFB781343DBB21946786860
:1009600000F00DF87B68DA7AFB781343DBB21946A6
:10097000786800F01EF800BF0837BD4680BD80B51E
:1009800086B002AF78600B46FB70FB783B737B68E8
:1009900018687B681B795B0099B27B68DB6807F19C
:1009A0000C020093012303F021F800BF1037BD466D
:1009B00080BD80B582B000AF78600B46FB70FB78DD
:1009C00043F00403DBB219467868FFF7D8FF012033
:1009D000FFF70CFEFB7823F00403DBB219467868BE
:1009E000FFF7CDFF0120FFF701FE00BF0837BD462E
:1009F00080BD80B582B000AF7860396007E03B68A9
:100A00005A1C3A601B781946786800F016F83B6863
:100A10001B78002BF3D100BF00BF0837BD4680BD57
:100A200080B582B000AF7860396039687868FFF7C8
:100A3000E0FF00BF0837BD4680BD80B582B000AF83
:100A400078600B46FB70FB78012219467868FFF747
:100A500057FF012318460837BD4680BD80B582B0D8
:100A600000AF0023FB710121204802F063FE034622
:100A7000002B0CBF01230023DBB2002B02D002238A
:100A8000FB712DE020211A4802F054FE0346002B92
:100A90000CBF01230023DBB2002B02D00423FB7127
:100AA0001EE04FF40051114802F044FE0346002BB3
:100AB0000CBF01230023DBB2002B02D00623FB7105
:100AC0000EE04FF48051094802F034FE0346002B3B
:100AD0000CBF01230023DBB2002B01D00823FB71E4
:100AE000FB7918460837BD4680BD00BF00040240B0
:100AF0000008024080B584B000AF0346FB71FB796B
:100B0000FB73FFF7ABFF0346BB73012002F0B6FA9D
:100B1000FFF7A4FF03467B73BA7B7B7B9A4201D12C
:100B2000BB7BFB73FB7B18461037BD4680BD0000C6
:100B300080B500AF2F4B1B781846FFF7DBFF03464D
:100B40001A462C4B1A702C4B1B7803F00203DBB2B5
:100B5000002B41D1274B1B78023B062B46D801A224
:100B600052F823F08D0B0008ED0B0008990B0008DC
:100B7000ED0B0008810B0008ED0B0008A50B000829
:100B80001D4A137843F00203137030E01A4A1378B9
:100B900043F0020313702AE0174A137843F002036C
:100BA000137024E0144A137843F002031370134BBC
:100BB0001B780A2B02D1114B09221A700D4B1B789E
:100BC0001846FFF797FF03461A460A4B1A70094B5F
:100BD0001B78002BF2D10AE0064B1B78002B06D1C4
:100BE000054A137823F00203137000E000BF00BF32
:100BF00080BD00BF840000207C0000200000002099
:100C000080B588B004AF0346FB800023BB73A023EC
:100C1000FB73FB7B99B2FA884FF0FF3302930123F9
:100C2000019307F10E0300931023044803F0D6F854
:100C3000BB7B18461037BD4680BD00BF0C010020AD
:100C400080B588B004AF03460A46FB8013467B712B
:100C5000A023FB73FB7B99B2FA884FF0FF3302931A
:100C6000012301937B1D00931023054802F0BCFF74
:100C7000052002F003FA00BF1037BD4680BD00BF5B
:100C80000C01002080B500AF002200211148FFF7C1
:100C900081FD11490F48FFF7C3FE012200210D48D5
:100CA000FFF778FD0D490B48FFF7BAFE022200213D
:100CB0000848FFF76FFD0A490648FFF7B1FE032217
:100CC00000210448FFF766FD06490248FFF7A8FE29
:100CD00000BF80BD2C050020147A00082C7A000883
:100CE000447A00085C7A000880B584B000AF0346FF
:100CF000FB7103220C210B48FFF74CFD0023FB7313
:100D000006E009490748FFF78BFEFB7B0133FB73C5
:100D1000FA7BFB799A42F4D300BF00BF1037BD467F
:100D200080BD00BF2C050020707A000880B483B01D
:100D300000AF786039607B683A4AA2FB0312920CDC
:100D4000394901FB02F29B1A7B607B685B09374AD9
:100D5000A2FB0323DB09DAB23B681A707B685A09ED
:100D60003249A1FB0212D209314901FB02F29B1A5E
:100D70007B607B682F4AA2FB03235A0B3B6801333D
:100D8000D2B21A707B682B4AA2FB0312520B42F2BA
:100D9000107101FB02F29B1A7B607B68264AA2FB62
:100DA00003239A093B680233D2B21A707B68224A45
:100DB000A2FB031292094FF47A7101FB02F29B1A13
:100DC0007B607B681D4AA2FB03235A093B680333FF
:100DD000D2B21A707B68194AA2FB0312520964212D
:100DE00001FB02F29B1A7B607B68154AA2FB03237E
:100DF000DA083B680433D2B21A707968104BA3FB4F
:100E00000123DA0813469B0013445B00CA1A3B68AF
:100E10000533D2B21A7000BF0C37BD465DF8047BB3
:100E2000704700BF83DE1B4340420F00C55A7C0A57
:100E3000A08601005917B7D1D34D62101F85EB5121
:100E4000CDCCCCCC80B483B000AF78607B681B780D
:100E50001A46184B03FB02F27B6801331B781946D4
:100E600042F2107301FB03F31A447B6803331B78CF
:100E70001946642303FB01F17B6802331B78184693
:100E80004FF47A7300FB03F30B441A447B6804337A
:100E90001B7819460B469B000B445B0013447A6891
:100EA00005321278134418460C37BD465DF8047BB2
:100EB000704700BFA086010080B586B000AFF86023
:100EC000B96011461A460B46FB711346BB710523E8
:100ED0003B750523FB750523BB7502220521F868C8
:100EE000FFF758FC2249F868FFF79AFD0222052116
:100EF000F868FFF74FFC00237B7525E07A7DFB79CE
:100F00009A4201D1FB7DBB757B7DBA6813441B7887
:100F10003033DBB21946F868FFF78FFDFB7D0133F4
:100F2000FB75BB79002B0CD07B7DC3F10502BB792F
:100F30009A4206D12E21F868FFF77FFDFB7D013331
:100F4000FB757B7D01337B757B7D052BD6D9BB7D06
:100F500002221946F868FFF71DFCF868FFF774FCD9
:100F6000F868FFF7A3FC00BF1837BD4680BD00BF7F
:100F7000747A000880B588B000AFF8607B600B46DB
:100F8000FB721346BB72FB7AC3F10603BB770523E2
:100F90007B77BB7FFB7707F114031946F868FFF7EF
:100FA000C5FEBB7AFA7F07F114017868FFF784FF6A
:100FB000444B1B781846FFF79DFD03461A46414BEC
:100FC0001A70404B1B78002BF2D03E4B1B78023B33
:100FD000062B64D801A252F823F000BFF90F0008D5
:100FE0009F100008291000089F10000855100008E5
:100FF0009F1000086B100008FB7F20333B4413F860
:101000000C3C5A1C304B83FB02139910D317C91A9E
:101010000B469B000B445B00D11AFB7FCAB2203306
:101020003B4403F80C2C3AE0FB7F20333B4413F89D
:101030000C3C002B07D0FB7F20333B4413F80C3CC7
:10104000013BDAB200E00922FB7F20333B4403F886
:101050000C2C24E0FA7F7B7F9A4203D2FB7F013382
:10106000FB771CE0BB7FFB7719E07868FFF705FC96
:101070007868FFF7D0FB134B1B781846FFF73AFD53
:1010800003461A460F4B1A700E4B1B78002BF2D1F9
:1010900007F114031846FFF7D5FE03460DE0094B90
:1010A0001B781846FFF726FD03461A46054B1A70B3
:1010B000044B1B78002BF2D173E718462037BD464E
:1010C00080BD00BF840000206766666680B582B080
:1010D00000AF00237B601548FFF73BFB0022002197
:1010E0001248FFF757FB12491048FFF799FC0F4BC6
:1010F000002204210020FFF73DFF78607B6842F268
:10110000B122934203D10B4B0B221A7007E0094B1B
:101110000A221A700548FFF71CFBFFF7B3FD0348CE
:10112000FFF717FB00BF0837BD4680BD2C05002028
:101130009C7A00080000002080B582B000AF002338
:10114000FB711948FFF705FB002200211648FFF745
:1011500021FB16491448FFF763FC154B1B78184612
:10116000114B00220121FFF705FF0346FB71FB79BC
:10117000092B01D90923FB710D4B1B78FA799A428F
:1011800008D00B4AFB791370094B1B7819460120D4
:10119000FFF756FD074B0C221A700348FFF7D9FAE8
:1011A00000BF0837BD4680BD2C050020B47A00087A
:1011B000850000200000002080B582B000AF002331
:1011C000FB711948FFF7C5FA002200211648FFF706
:1011D000E1FA16491448FFF723FC154B1B78184613
:1011E000114B00220121FFF7C5FE0346FB71FB797D
:1011F000092B01D90923FB710D4B1B78FA799A420F
:1012000008D00B4AFB791370094B1B781946022052
:10121000FFF716FD074B0E221A700348FFF799FAE5
:1012200000BF0837BD4680BD2C050020C87A0008E5
:10123000860000200000002080B582B000AF0023AF
:10124000FB711A48FFF785FA002200211748FFF7C3
:10125000A1FA17491548FFF7E3FB164B1B78184610
:10126000124B00220221FFF785FE0346FB71FB793A
:10127000632B01D96323FB710E4B1B78FA799A42D9
:1012800008D00C4AFB7913700A4B1B7819463D2095
:10129000FFF7D6FC084B0A221A700448FFF759FAE8
:1012A000FFF7F0FC00BF0837BD4680BD2C050020CD
:1012B000E07A0008870000200000002080B586B09A
:1012C00000AF0023FB7520E2BF48FFF742FAFB7D29
:1012D0005A1C3B46BD49184605F090FE3B46184651
:1012E000FEF796FF0346C3F114035B08DBB200224E
:1012F0001946B548FFF74EFA3B461946B248FFF784
:101300008FFBFA7DB24913469B0013440B441B78B4
:101310001846AD4B00220121FFF72CFE0346FA7D53
:10132000D8B2AB4913469B0013440B4402461A70D3
:10133000FA7DA74913469B0013440B441B78092BE5
:1013400007D9FA7DA24913469B0013440B44092296
:101350001A70FB7D9BB21A46920013449BB2103365
:1013600098B2FA7D9A4913469B0013440B441B78AC
:101370001946FFF765FC9448FFF7EBF9FB7D5A1C13
:101380003B469449184605F039FE3B461846FEF7A1
:101390003FFF0346C3F114035B08DBB2002219468A
:1013A0008948FFF7F7F93B4619468748FFF738FBAE
:1013B000FA7D874913469B0013440B4401331B7885
:1013C0001846814B00220121FFF7D4FD0346FA7D28
:1013D000D8B27F4913469B0013440B4401330246A5
:1013E0001A70FA7D7A4913469B0013440B4401336B
:1013F0001B78002B08D1FA7D754913469B001344D6
:101400000B44013301221A70FA7D714913469B0087
:1014100013440B4401331B78042B08D9FA7D6C4923
:1014200013469B0013440B44013304221A70FB7DC6
:101430009BB21A46920013449BB2113398B2FA7DC4
:10144000634913469B0013440B4401331B78194630
:10145000FFF7F6FB5C48FFF77CF9FB7D5A1C3B4627
:101460005D49184605F0CAFD3B461846FEF7D0FE1A
:101470000346C3F114035B08DBB20022194652484D
:10148000FFF788F93B4619464F48FFF7C9FAFA7D3E
:101490004F4913469B0013440B4402331B781846F4
:1014A000494B00220121FFF765FD0346FA7DD8B2C2
:1014B000474913469B0013440B44023302461A70FB
:1014C000FA7D434913469B0013440B4402331B78B7
:1014D000002B08D1FA7D3E4913469B0013440B4470
:1014E000023301221A70FA7D394913469B001344D6
:1014F0000B4402331B78032B08D9FA7D3449134679
:101500009B0013440B44023303221A70FB7D9BB2F1
:101510001A46920013449BB2123398B2FA7D2C49BA
:1015200013469B0013440B4402331B781946FFF704
:1015300087FB2548FFF70DF9FB7D5A1C3B462749E1
:10154000184605F05BFD3B461846FEF761FE034674
:10155000C3F114035B08DBB2002219461A48FFF7F7
:1015600019F93B4619461848FFF75AFAFA7D184907
:1015700013469B0013440B4403331B781846124B4D
:1015800000220221FFF7F6FC0346FA7DD8B210498B
:1015900013469B0013440B44033302461A70FA7D32
:1015A0000B4913469B0013440B4403331B78632BF6
:1015B00016D9FA7D064913469B0013440B440333A6
:1015C00063221A700CE000BF2C050020F07A00089E
:1015D00088000020F87A0008047B0008107B0008CF
:1015E000FB7D9BB21A46920013449BB2133398B210
:1015F000FA7D4E4913469B0013440B4403331B787A
:101600001946FFF71DFB4A48FFF7A3F8FB7D5A1C5C
:101610003B464849184605F0F1FC3B461846FEF7A4
:10162000F7FD0346C3F114035B08DBB20022194641
:101630003F48FFF7AFF83B4619463D48FFF7F0F942
:10164000FA7D3A4913469B0013440B4404331B783C
:101650001846374B00220221FFF78CFC0346FA7D27
:10166000D8B2324913469B0013440B44043302465C
:101670001A70FA7D2D4913469B0013440B44043322
:101680001B78632B08D9FA7D284913469B00134425
:101690000B44043363221A70FA7D244913469B00DD
:1016A00013440B4404331978FA7D204813469B00F9
:1016B0001344034403331B78994210D2F97DFA7D19
:1016C0001A480B469B000B44034403331878174910
:1016D00013469B0013440B44043302461A70FB7DEF
:1016E0009BB21A46920013449BB2143398B2FA7D0F
:1016F0000E4913469B0013440B4404331B781946D0
:10170000FFF79EFAFB7D0133FB750B4B1B78FA7DCF
:101710009A42FFF4D9AD0648FFF71BF8074B0F229A
:101720001A7000BF1837BD4680BD00BF880000207A
:101730002C0500201C7B00088600002000000020F3
:1017400090B583B000AF0120FFF75AFA03461A465E
:10175000A74B1A70A64B1B78092B02D9A44B092260
:101760001A700220FFF74CFA03461A46A14B1A7072
:10177000A04B1B78092B02D99E4B09221A709D4B56
:101780001B78092B02D99B4B09221A700023FB718D
:1017900015E1FB799BB21A46920013449BB21033B9
:1017A0009BB2FC791846FFF72BFA03461946924A7A
:1017B00023469B00234413440A461A70FA798E4943
:1017C00013469B0013440B441B78092B07D9FA7965
:1017D000894913469B0013440B4409221A70FB7974
:1017E0009BB21A46920013449BB211339BB2FC7910
:1017F0001846FFF705FA034619467F4A23469B0021
:101800002344134401330A461A70FA797A4913467D
:101810009B0013440B4401331B78002B08D1FA7949
:10182000754913469B0013440B44013301221A707F
:10183000FA79714913469B0013440B4401331B781A
:10184000042B08D9FA796C4913469B0013440B44C6
:10185000013304221A70FB799BB21A46920013449A
:101860009BB212339BB2FC791846FFF7C9F90346C5
:101870001946614A23469B002344134402330A4617
:101880001A70FA795C4913469B0013440B440233E7
:101890001B78002B08D1FA79574913469B00134453
:1018A0000B44023301221A70FA79534913469B0004
:1018B00013440B4402331B78032B08D9FA794E49A1
:1018C00013469B0013440B44023303221A70FB7926
:1018D0009BB21A46920013449BB213339BB2FC791D
:1018E0001846FFF78DF903461946434A23469B00E5
:1018F0002344134403330A461A70FA793E491346C7
:101900009B0013440B4403331B78632B08D9FA79EB
:10191000394913469B0013440B44033363221A7066
:10192000FB799BB21A46920013449BB214339BB2CC
:10193000FC791846FFF764F9034619462E4A2346F8
:101940009B002344134404330A461A70FA792A4947
:1019500013469B0013440B4404331B78632B08D9B4
:10196000FA79254913469B0013440B440433632240
:101970001A70FA79204913469B0013440B44043330
:101980001978FA791C4813469B0013440344033327
:101990001B78994210D2F979FA7917480B469B00C7
:1019A0000B44034403331878134913469B00134434
:1019B0000B44043302461A70FB790133FB710D4B63
:1019C0001B78FA799A42FFF4E4AE3D20FFF718F94C
:1019D00003461A46094B1A70084B1B78632B02D931
:1019E000064B63221A7000BF0C37BD4690BD00BF86
:1019F000850000208600002088000020870000204D
:101A000080B400AF094BDB68084A43F08073D360B1
:101A1000074B00225A60064B1B68054A43F001033E
:101A2000136000BFBD465DF8047B7047F0ED00E039
:101A3000001000E080B485B000AF0346FB710323C3
:101A4000FB73104BFA221A700E4AFB7953700D4B40
:101A500001229A700B4B1A78FB7B5340FB73094BA6
:101A60005A78FB7B5340FB73064B9A78FB7B5340C1
:101A7000FB73044AFB7BD37000BF1437BD465DF88F
:101A8000047B70478802002080B588B000AF4F4AC1
:101A900007F1180392E803001860043319704C4AE8
:101AA00007F1100392E80300186004331970494AE3
:101AB00007F1080392E80300186004331970464ADE
:101AC0003B4692E8030018600433197007F11801CF
:101AD0004FF6FF730522414804F008FA192001F07F
:101AE000CDFA07F110014FF6FF7305223B4804F0D1
:101AF000FDF9192001F0C2FA07F108014FF6FF7352
:101B00000522364804F0F2F9192001F0B7FA3946F7
:101B10004FF6FF730522314804F0E8F9192001F06F
:101B2000ADFA07F118014FF6FF7305222B4804F0B8
:101B3000DDF9192001F0A2FA07F110014FF6FF7349
:101B40000522264804F0D2F9192001F097FA07F18E
:101B500008014FF6FF730522204804F0C7F9192049
:101B600001F08CFA39464FF6FF7305221B4804F04A
:101B7000BDF9192001F082FA00BF194B01221A7039
:101B800014E0174B1B781846FFF754FF4FF6FF730E
:101B900004221449114804F0A9F9192001F06EFA41
:101BA0000F4B1B780133DAB20D4B1A700C4B1A78BD
:101BB0000D4B1B789A42E4D90C4B00221A700C4B47
:101BC00001221A7000BF2037BD4680BD287B000867
:101BD000307B0008387B0008407B0008A80100200B
:101BE0000C0500208802002087000020100500203E
:101BF0001105002090B58BB002AF0446084611468F
:101C00001A462346FB710346BB710B467B71134694
:101C10003B712E4B5A682E4B1B68D31AB3F57A7F53
:101C20008CBF01230023DBB2002B1BD0294B1B7878
:101C3000002B17D12848FEF78CFD002200212648F2
:101C4000FEF7A8FD25492448FEF7EAFE01220021FF
:101C50002148FEF79FFD22491F48FEF7E1FE1D4B7C
:101C600001221A70022200211B48FEF793FDF97928
:101C7000BB797A7907F10800019200930B46194A63
:101C8000152105F085F907F1080319461248FEF7FA
:101C9000C7FE032200211048FEF77CFD397997F832
:101CA000303097F8342007F10800019200930B467A
:101CB0000D4A152105F06CF907F10803194606488D
:101CC000FEF7AEFE00BF2437BD4690BD001000E019
:101CD00080020020280500202C050020147A00082E
:101CE0002C7A0008487B0008647B000880B59EB011
:101CF00004AF002387F86730F2E00023A7F86430D0
:101D00000023A7F862300023A7F860300023A7F86B
:101D10005E3097F86720784913469B0013440B44C4
:101D200004331A78754B1B789A4200F2D38097F8E7
:101D30006720714913469B0013440B4403331B78FF
:101D4000013B87F85D302BE097F85D306C4A5B0013
:101D500013445B78032B12D0032B16DC012B02D02B
:101D6000022B06D011E0B7F864300133A7F86430D5
:101D700011E0B7F862300133A7F862300BE0B7F832
:101D800060300133A7F8603005E0B7F85E3001330A
:101D9000A7F85E3000BF97F85D30013387F85D30FB
:101DA00097F86720544913469B0013440B440433AF
:101DB0001B7897F85D209A42C6D397F867204E4962
:101DC00013469B0013440B4401331B78013B032B48
:101DD00016D801A252F823F0E91D0008EF1D0008F3
:101DE000F51D0008FB1D0008464BBB650BE0464B8C
:101DF000BB6508E0454BBB6505E0454BBB6502E0B4
:101E0000404BBB6500BF522387F8573097F86720D7
:101E1000394913469B0013440B4402331B78022BB1
:101E200003D1472387F857300DE097F867203249F0
:101E300013469B0013440B4402331B78032B02D13F
:101E4000422387F8573097F867202B4913469B00A9
:101E500013440B441B78381D2E4A102105F098F8C6
:101E60003B1D1846FEF7D4F903469AB2391D4FF6CA
:101E7000FF73294804F03AF84FF4967001F0FEF829
:101E800097F867201C4913469B0013440B441B78AA
:101E9000194697F85730B7F8622007F114000292FC
:101EA0000193BB6D00930B461C4A402105F070F86E
:101EB00007F114031846FEF7ABF903469AB207F18F
:101EC00014014FF6FF73144804F010F8142001F0C9
:101ED000D5F800E000BF97F86730013387F8673026
:101EE0000F4B1B7897F867209A42FFF406AF00BFAC
:101EF00000BF6837BD4680BD8800002087000020F5
:101F00008C02002064790008687900086C79000868
:101F100070790008807B0008380200208C7B000864
:101F20008600002080B596B000AFF8607B600B465D
:101F3000FB721346BB72002387F8573097F857306F
:101F40005A1C87F8572058333B44AA2203F8442CE4
:101F500097F857305A1C87F8572058333B44FA7A81
:101F600003F8442C97F857305A1C87F857205833F9
:101F70003B44BA7A03F8442C012387F8563040E0FA
:101F8000002387F85530002387F8543021E097F874
:101F900054305B007A6813441B7897F856209A42B5
:101FA00012D197F854305B007A681A4497F857308A
:101FB000591C87F85710527858333B4403F8442C87
:101FC000012387F8553009E097F85430013387F83A
:101FD000543097F85420BB7A9A42D8D397F85530AA
:101FE000002B09D197F857305A1C87F857205833DF
:101FF0003B44042203F8442C97F85630013387F809
:10200000563097F85620BB7A9A42B9D997F857308C
:102010005A1C87F8572058333B4497F8602003F840
:10202000442C97F857305A1C87F8572058333B44B4
:1020300097F8642003F8442C97F857305A1C87F817
:10204000572058333B4497F8682003F8442C97F8FE
:1020500057305A1C87F8572058333B4497F86C2068
:1020600003F8442C97F857305A1C87F857205833F8
:102070003B44552203F8442C97F857309AB207F1A5
:1020800014014FF6FF73F86803F030FF00BF5837B4
:10209000BD4680BDF0B589B004AF00F07DFF00F013
:1020A000DDF900F0C1FB00F09FFB00F04DFA00F0FD
:1020B0007FFA00F0B1FA00F00DFB00F039FB00F000
:1020C00065FBFFF79DFC0023042214217048FEF7F6
:1020D000C8FA6F48FEF703FC6D48FEF73AFB6D48FF
:1020E00003F094FAFEF7CEFD0123FB730AE0FB7BBD
:1020F0001846FEF7F9FD4FF42F7000F0BFFFFB7B91
:102100000133FB73FB7B062BF1D9FFF719FB14227C
:102110006149624803F075FF14226149614803F088
:1021200070FF614B01221A70FEF702FD5F4B1B78B6
:10213000093B062B1FD801A252F823F059210008B1
:10214000772100085F210008652100087721000839
:102150006B21000871210008FEF7B8FF0BE0FEF7C5
:10216000EBFF08E0FFF728F805E0FFF7A7F802E02B
:10217000FFF762F800BF4C4B1B78002B07D0FFF72E
:1021800083FC4B4B00221A70474B00221A70494BBC
:102190001B78012B40F23581474B1B78002B00F058
:1021A00030810023BB6047E0444ABB6813441B787E
:1021B000F52B3ED1BB680133404AD35CFB70BB6852
:1021C00002333E4AD35CBB70BB6803333B4AD35CEB
:1021D0007B70F6233B703A78FB7853403B703A783B
:1021E000BB7853403B707A783B789A421DD1344B90
:1021F0001A78344B1B789A4213D8314B1B78194606
:10220000314AFB7802F811302D4B1B782E4A5B00C7
:102210001344BA785A702A4B1B780133DAB2284B30
:102220001A70BB680433BB6006E0BB680133BB6057
:1022300002E0BB680133BB60224B1B78013B9B0073
:10224000BA689A42B0DDFFF751FD00237B604CE095
:102250001D4A7B685B0013445B78032B12D0032B71
:102260003ADC012B02D0022B06D035E0174B1B685D
:102270000133164A136035E0154B1B680133144ACD
:1022800013602FE0134B1B680133124A136029E0DF
:102290002C05002060010020E0040020A80100209F
:1022A000F4040020F00100200F05002000000020B1
:1022B0000E05002010050020110500205403002009
:1022C0000D050020870000208C020020140500204E
:1022D000180500201C0500204D4B1B6801334C4A9B
:1022E000136000BF7B6801337B604A4B1B781A4642
:1022F0007B689342ACDB484B1A68484B1B681A4416
:10230000474B1B681A44424B1B681344454A1360F1
:10231000404B1878444B1C78404B1B68DDB23E4B59
:102320001B68DEB23E4B1B68DAB2394B1B68DBB26E
:102330001344DBB2394A1268D1B2394A1268D2B2B8
:102340000A44D1B2324A1268D2B20A44D2B20192DD
:10235000009333462A462146FFF74CFC334B1B784B
:1023600003F00103DBB2002B1FD0314B1C782D4B47
:102370001B68DDB2294B1B68DBB2274A1268D2B258
:1023800027490968C9B222480068C0B20390029187
:1023900001920093274B2A4621462748FFF7C2FDAA
:1023A000224A137823F001031370244B00221A7081
:1023B000234B00221A70234B00221A70224B00225A
:1023C0001A70224B00221A80214B00221A70C6225A
:1023D0000021184804F034FE4FF4C67200211D4855
:1023E00004F02EFE0C4B00221A600C4B00221A60E7
:1023F0000B4B00221A60064B00221A60094B002288
:102400001A60154B1B680133134A13608CE600BF3A
:10241000200500208700002014050020180500205A
:102420001C050020240500208600002080000020DC
:10243000850000208C020020F00100200F05002004
:102440000E050020100500201105002008050020C1
:102450000D050020540300208402002080B594B0B4
:1024600000AF07F11C0334220021184604F0E8FDF8
:1024700007F1080300221A605A609A60DA601A6154
:1024800000237B602E4B1B6C2D4A43F0805313645A
:102490002B4B1B6C03F080537B607B6800233B60FD
:1024A000284B1B68274A43F440431360254B1B68A5
:1024B00003F440433B603B680223FB610123BB62A2
:1024C0001023FB6202237B630023BB630C23FB63AB
:1024D000F0233B6402237B640223BB640223FB647E
:1024E00007F11C03184602F0A3FD0346002B14BF9E
:1024F00001230023DBB2002B01D000F0ADFA0F2343
:10250000BB600323FB6000233B614FF4A0537B615E
:102510004FF48053BB6107F108030521184602F010
:10252000C5FA0346002B14BF01230023DBB2002BA6
:1025300001D000F091FA00BF5037BD4680BD00BF0A
:10254000003802400070004080B500AF154B164ABD
:102550001A60144B154A5A60124B00229A60114BB4
:102560000022DA600F4B4FF480421A610D4B0022BB
:102570005A610C4B00229A610A4B0022DA61094B26
:1025800000221A62074801F0EDF80346002B14BF41
:1025900001230023DBB2002B01D000F05DFA00BF65
:1025A00080BD00BFB800002000540040801A060023
:1025B00080B500AF154B164A1A60144B154A5A6085
:1025C000124B00229A60114B0022DA600F4B4FF43D
:1025D00080421A610D4B00225A610C4B00229A6115
:1025E0000A4B0022DA61094B00221A62074801F007
:1025F000B9F80346002B14BF01230023DBB2002BE4
:1026000001D000F029FA00BF80BD00BF0C010020FE
:10261000005C0040801A060080B586B000AF07F16C
:10262000080300221A605A609A60DA603B46002272
:102630001A605A60254B264A1A60244B4FF22342F7
:102640005A60224B00229A60204B40F29F52DA607F
:102650001E4B00221A611D4B00229A611B4802F09A
:1026600085FF0346002B14BF01230023DBB2002BA0
:1026700001D000F0F1F94FF48053BB6007F108037B
:102680001946124803F022F90346002B14BF012318
:102690000023DBB2002B01D000F0DEF900233B6009
:1026A00000237B603B461946084803F03FFB034686
:1026B000002B14BF01230023DBB2002B01D000F05C
:1026C000CBF900BF1837BD4680BD00BF60010020B8
:1026D0000004004080B500AF134B144A1A60124B3F
:1026E0004FF416525A60104B00229A600E4B002293
:1026F000DA600D4B00221A610B4B0C225A610A4B17
:1027000000229A61084B0022DA61074803F09EFB21
:102710000346002B14BF01230023DBB2002B01D0A2
:1027200000F09AF900BF80BDA8010020004C0040D5
:1027300080B500AF134B144A1A60124B4FF4165277
:102740005A60104B00229A600E4B0022DA600D4B4B
:1027500000221A610B4B0C225A610A4B00229A612B
:10276000084B0022DA61074803F070FB0346002B98
:1027700014BF01230023DBB2002B01D000F06CF961
:1027800000BF80BDF00100200010014080B500AF07
:10279000134B144A1A60124B4FF416525A60104BE6
:1027A00000229A600E4B0022DA600D4B00221A6163
:1027B0000B4B0C225A610A4B00229A61084B0022F3
:1027C000DA61074803F042FB0346002B14BF0123E4
:1027D0000023DBB2002B01D000F03EF900BF80BD2A
:1027E000380200200044004080B582B000AF0023D2
:1027F0007B600C4B1B6B0B4A43F400131363094BB8
:102800001B6B03F400137B607B6800220021112006
:1028100000F033FD112000F04CFD00BF0837BD462D
:1028200080BD00BF0038024080B58AB000AF07F11C
:10283000140300221A605A609A60DA601A61002359
:102840003B61294B1B6B284A43F080031363264BE3
:102850001B6B03F080033B613B690023FB60224B51
:102860001B6B214A43F0010313631F4B1B6B03F0E7
:102870000103FB60FB680023BB601B4B1B6B1A4A08
:1028800043F004031363184B1B6B03F00403BB609A
:10289000BB6800237B60144B1B6B134A43F002039D
:1028A0001363114B1B6B03F002037B607B682023D7
:1028B0007B610023BB610023FB6107F11403194610
:1028C0000A4800F0A3FD43F201037B610023BB61D2
:1028D0000023FB6107F114031946054800F096FD3B
:1028E00000BF2837BD4680BD0038024000080240C6
:1028F0000004024080B584B000AF78600B467B8056
:102900007B681B68374A934236D17B88BB81BB8981
:10291000032B2CD9344B1B78F52B28D10023FB81BA
:102920001EE0FA89314B1B889BB2591C88B22F4993
:10293000088019462C4B9A5C2D4B5A542B4B1B8804
:102940009BB240F28B1293428CBF01230023DBB277
:10295000002B02D0254B00221A80FB890133FB811A
:10296000FA89BB899A42DCD3224ABB89138014229C
:102970001D49214803F045FB7B681B681F4A9342B1
:102980002CD17B887B817B89042B22D91C4B1B7823
:10299000AA2B1ED11A4B5A781A4B1B789A4218D17F
:1029A000174B9B78802B14D1154BDB78A02B10D1C3
:1029B000134B1B79002B0CD1114B5B79002B08D1E9
:1029C0000F4B9B79552B04D10F4A137843F0010329
:1029D000137014220A490D4803F013FB00BF10378F
:1029E000BD4680BD004C0040E004002008050020EA
:1029F000540300200A050020A80100200010014017
:102A0000F40400208500002080000020F001002058
:102A100080B483B000AF78600C4B1B780133DAB21E
:102A20000A4B1A700A4B1B780133DAB2084B1A7042
:102A3000064B1B78022B02D9064B01221A7000BFED
:102A40000C37BD465DF8047B704700BF0E050020C3
:102A5000100500200F05002080B400AF72B600BF43
:102A600000BFFDE780B582B002AF042300931423BA
:102A7000272203490348FDF7C4FD00BFBD4680BDC2
:102A8000B80000202C05002080B500AFFFF7EAFF5A
:102A900080BD000080B483B000AF00237B60104B8A
:102AA0005B6C0F4A43F4804353640D4B5B6C03F43F
:102AB00080437B607B6800233B60094B1B6C084AAA
:102AC00043F080531364064B1B6C03F080533B6050
:102AD0003B6800BF0C37BD465DF8047B704700BF04
:102AE0000038024080B58CB000AF786007F11C035D
:102AF00000221A605A609A60DA601A617B681B686B
:102B0000424A93422CD10023BB61414B1B6B404A8C
:102B100043F0020313633E4B1B6B03F00203BB61E4
:102B2000BB69C023FB6112233B6200237B6203234A
:102B3000BB620423FB6207F11C031946354800F011
:102B400065FC00237B61324B1B6C314A43F400135C
:102B500013642F4B1B6C03F400137B617B6950E003
:102B60007B681B682C4A93424BD100233B61284B66
:102B70001B6B274A43F004031363254B1B6B03F0C5
:102B800004033B613B690023FB60214B1B6B204A24
:102B900043F0010313631E4B1B6B03F00103FB6047
:102BA000FB684FF40073FB6112233B6201237B62DD
:102BB0000323BB620423FB6207F11C031946174879
:102BC00000F024FC4FF48073FB6112233B6201236D
:102BD0007B620323BB620423FB6207F11C031946DB
:102BE0000F4800F013FC0023BB60094B1B6C084A24
:102BF00043F400031364064B1B6C03F40003BB6037
:102C0000BB6800BF3037BD4680BD00BF00540040E8
:102C10000038024000040240005C0040000802400E
:102C20000000024080B584B000AF78607B681B680C
:102C30000E4A934215D10023FB600D4B1B6C0C4ACE
:102C400043F0020313640A4B1B6C03F00203FB60A6
:102C5000FB68002200211D2000F00FFB1D2000F06A
:102C600028FB00BF1037BD4680BD00BF00040040F8
:102C70000038024080B58EB000AF786007F12403C1
:102C800000221A605A609A60DA601A617B681B68D9
:102C9000574A934234D100233B62564B1B6C554A32
:102CA00043F400231364534B1B6C03F400233B6277
:102CB0003B6A0023FB614F4B1B6B4E4A43F0010301
:102CC00013634C4B1B6B03F00103FB61FB69032394
:102CD0007B620223BB620023FB6203233B63082366
:102CE0007B6307F124031946434800F08FFB002261
:102CF0000021342000F0C1FA342000F0DAFA73E049
:102D00007B681B683D4A934235D10023BB61394B38
:102D10005B6C384A43F010035364364B5B6C03F032
:102D20001003BB61BB6900237B61324B1B6B314AD3
:102D300043F0010313632F4B1B6B03F001037B6113
:102D40007B694FF4C0637B620223BB620023FB629A
:102D500003233B6307237B6307F1240319462648BB
:102D600000F054FB00220021252000F086FA2520E7
:102D700000F09FFA38E07B681B68214A934233D108
:102D800000233B611B4B1B6C1A4A43F40033136452
:102D9000184B1B6C03F400333B613B690023FB6061
:102DA000144B1B6B134A43F001031363114B1B6B52
:102DB00003F00103FB60FB680C237B620223BB6210
:102DC0000023FB6203233B6307237B6307F1240398
:102DD0001946094800F01AFB00220021262000F0C5
:102DE0004CFA262000F065FA00BF3837BD4680BD9A
:102DF000004C00400038024000000240001001403A
:102E00000044004080B400AF00BFFDE780B400AFD5
:102E100000BFFDE780B400AF00BFFDE780B400AFA6
:102E200000BFFDE780B400AF00BFFDE780B400AF96
:102E300000BFBD465DF8047B704780B400AF00BFA3
:102E4000BD465DF8047B704780B400AF00BFBD464F
:102E50005DF8047B704780B500AF00F0EFF800BF6D
:102E600080BD000080B500AF024802F03FFC00BF0B
:102E700080BD00BF6001002080B500AF024803F0B4
:102E80001DF900BF80BD00BFF001002080B500AF7C
:102E9000024803F013F900BF80BD00BF38020020D4
:102EA00080B500AF024803F009F900BF80BD00BF44
:102EB000A801002080B586B000AF7860144A154B99
:102EC000D31A7B617B693B61134B1B68002B02D1DA
:102ED000114B124A1A60104B1A687B6813443A6906
:102EE0009A4207D204F0B4F803460C221A604FF05D
:102EF000FF3309E0084B1B68FB60074B1A687B68CF
:102F00001344054A1360FB6818461837BD4680BD58
:102F100000000220000400003C0500209006002074
:102F200080B400AF064BD3F88830054A43F47003F1
:102F3000C2F8883000BFBD465DF8047B704700BF13
:102F400000ED00E0DFF834D0FFF7EAFF0C480D4950
:102F50000D4A002302E0D458C4500433C4188C42F4
:102F6000F9D30A4A0A4C002301E013600432A2425A
:102F7000FBD304F073F8FFF78DF8704700000220D0
:102F80000000002060000020087C00086000002095
:102F90008C060020FEE7000080B500AF0E4B1B68DA
:102FA0000D4A43F4007313600B4B1B680A4A43F449
:102FB00080631360084B1B68074A43F480731360F7
:102FC000032000F04FF90F2000F008F8FFF762FD32
:102FD0000023184680BD00BF003C024080B582B08F
:102FE00000AF7860124B1A68124B1B7819464FF4E9
:102FF0007A73B3FBF1F3B2FBF3F3184600F067F911
:103000000346002B01D001230EE07B680F2B0AD86A
:10301000002279684FF0FF3000F02FF9064A7B68F4
:103020001360002300E0012318460837BD4680BD29
:10303000040000200C0000200800002080B400AF35
:10304000064B1B781A46064B1B681344044A136050
:1030500000BFBD465DF8047B704700BF0C00002038
:103060004005002080B400AF034B1B681846BD46E6
:103070005DF8047B704700BF4005002080B584B038
:1030800000AF7860FFF7EEFFB8607B68FB60FB681D
:10309000B3F1FF3F05D00A4B1B781A46FB68134477
:1030A000FB6000BFFFF7DEFF0246BB68D31AFA6879
:1030B0009A42F7D800BF00BF1037BD4680BD00BFA1
:1030C0000C00002080B485B000AF78607B6803F00E
:1030D0000703FB600C4BDB68BB60BA684FF6FF036D
:1030E0001340BB60FB681A02BB68134343F0BF6325
:1030F00043F40033BB60044ABB68D36000BF14379D
:10310000BD465DF8047B704700ED00E080B400AF81
:10311000044BDB681B0A03F007031846BD465DF845
:10312000047B704700ED00E080B483B000AF03463D
:10313000FB7197F90730002B0BDBFB7903F01F02C3
:10314000074997F907305B09012000FA02F241F8BC
:10315000232000BF0C37BD465DF8047B704700BFDD
:1031600000E100E080B483B000AF03463960FB713A
:1031700097F90730002B0ADB3B68DAB20C4997F964
:1031800007301201D2B20B4483F800230AE03B68F7
:10319000DAB20849FB7903F00F03043B1201D2B203
:1031A0000B441A7600BF0C37BD465DF8047B7047B0
:1031B00000E100E000ED00E080B489B000AFF8600D
:1031C000B9607A60FB6803F00703FB61FB69C3F138
:1031D0000703042B28BF0423BB61FB690433062BC0
:1031E00002D9FB69033B00E000237B614FF0FF3213
:1031F000BB6902FA03F3DA43BB681A407B699A4061
:103200004FF0FF317B6901FA03F3D9437B680B4030
:10321000134318462437BD465DF8047B7047000011
:1032200080B582B000AF78607B68013BB3F1807FEE
:1032300001D301230FE00A4A7B68013B53600F2151
:103240004FF0FF30FFF78EFF054B00229A60044BD2
:1032500007221A60002318460837BD4680BD00BF0C
:1032600010E000E080B582B000AF78607868FFF7CA
:1032700029FF00BF0837BD4680BD80B586B000AFCE
:103280000346B9607A60FB7300237B61FFF73EFF62
:1032900078617A68B9687869FFF78EFF024697F916
:1032A0000F3011461846FFF75DFF00BF1837BD46C7
:1032B00080BD80B582B000AF0346FB7197F907303F
:1032C0001846FFF731FF00BF0837BD4680BD80B507
:1032D00082B000AF78607868FFF7A2FF0346184617
:1032E0000837BD4680BD80B584B000AF78607B688C
:1032F0009B6DFB60FFF7B6FEB8607B6893F83530D6
:10330000DBB2022B08D07B6880225A657B680022E2
:1033100083F83420012352E07B681B681A687B68BD
:103320001B6822F016021A607B681B685A697B686A
:103330001B6822F080025A617B681B6C002B03D152
:103340007B689B6C002B07D07B681B681A687B68C6
:103350001B6822F008021A607B681B681A687B6889
:103360001B6822F001021A6013E0FFF77BFE0246A1
:10337000BB68D31A052B0CD97B6820225A657B6861
:10338000032283F835207B68002283F8342003234E
:1033900015E07B681B681B6803F00103002BE4D178
:1033A0007B68DB6D3F229A40FB689A607B68012254
:1033B00083F835207B68002283F8342000231846E8
:1033C0001037BD4680BD80B483B000AF78607B68A5
:1033D00093F83530DBB2022B04D07B6880225A652B
:1033E00001230CE07B68052283F835207B681B688D
:1033F0001A687B681B6822F001021A6000231846D5
:103400000C37BD465DF8047B7047000080B489B07E
:1034100000AF7860396000237B6100233B610023AB
:10342000BB610023FB6165E10122FB6902FA03F342
:103430007B613B681B687A6913403B613A697B6931
:103440009A4240F054813B685B6803F00303012B10
:1034500005D03B685B6803F00303022B30D17B6827
:103460009B68BB61FB695B00032202FA03F3DB4349
:10347000BA691340BB613B68DA68FB695B0002FA1A
:1034800003F3BA691343BB617B68BA699A607B68CE
:103490005B68BB610122FB6902FA03F3DB43BA6993
:1034A0001340BB613B685B681B0903F00102FB69C9
:1034B00002FA03F3BA691343BB617B68BA695A60C5
:1034C0003B685B6803F00303032B17D07B68DB6862
:1034D000BB61FB695B00032202FA03F3DB43BA69B9
:1034E0001340BB613B689A68FB695B0002FA03F317
:1034F000BA691343BB617B68BA69DA603B685B6891
:1035000003F00303022B23D1FB69DA087B6808323E
:1035100053F82230BB61FB6903F007039B000F22C5
:1035200002FA03F3DB43BA691340BB613B681A69D3
:10353000FB6903F007039B0002FA03F3BA69134324
:10354000BB61FB69DA087B680832B96943F822106D
:103550007B681B68BB61FB695B00032202FA03F313
:10356000DB43BA691340BB613B685B6803F003024D
:10357000FB695B0002FA03F3BA691343BB617B6822
:10358000BA691A603B685B6803F44033002B00F0B3
:10359000AE800023FB605D4B5B6C5C4A43F4804370
:1035A00053645A4B5B6C03F48043FB60FB68584ADE
:1035B000FB699B08023352F82330BB61FB6903F0BF
:1035C00003039B000F2202FA03F3DB43BA691340A3
:1035D000BB617B684F4A934225D07B684E4A934239
:1035E0001FD07B684D4A934219D07B684C4A934266
:1035F00013D07B684B4A93420DD07B684A4A934272
:1036000007D07B68494A934201D106230CE0072387
:103610000AE0052308E0042306E0032304E0022374
:1036200002E0012300E00023FA6902F003029200A5
:103630009340BA691343BB613549FB699B08023368
:10364000BA6941F823203A4B9B68BB613B69DB4375
:10365000BA691340BB613B685B6803F48013002BBD
:1036600003D0BA693B691343BB61314ABB699360BC
:103670002F4BDB68BB613B69DB43BA691340BB611D
:103680003B685B6803F40013002B03D0BA693B6905
:103690001343BB61264ABB69D360254B5B68BB61A2
:1036A0003B69DB43BA691340BB613B685B6803F469
:1036B0000033002B03D0BA693B691343BB611C4A3A
:1036C000BB6953601A4B1B68BB613B69DB43BA693A
:1036D0001340BB613B685B6803F48033002B03D06D
:1036E000BA693B691343BB61114ABB691360FB694B
:1036F0000133FB61FB690F2B7FF696AE00BF00BF65
:103700002437BD465DF8047B704700BF0038024097
:10371000003801400000024000040240000802405E
:10372000000C024000100240001402400018024049
:10373000003C014080B485B000AF78600B467B80D0
:103740007B681A697B881340002B02D00123FB732E
:1037500001E00023FB73FB7B18461437BD465DF880
:10376000047B704780B584B000AF78607B68002B25
:1037700001D101232BE17B6893F83D30DBB2002BB4
:1037800006D17B68002283F83C207868FFF7AAF90D
:103790007B68242283F83D207B681B681A687B685D
:1037A0001B6822F001021A607B681B681A687B683C
:1037B0001B6842F400421A607B681B681A687B68C9
:1037C0001B6822F400421A6001F062FAF8607B681C
:1037D0005B68814A934207D8FB68804A934294BF52
:1037E00001230023DBB206E0FB687D4A934294BFCD
:1037F00001230023DBB2002B01D00123E7E0FB68AB
:10380000784AA2FB03239B0CBB607B681B685B6848
:1038100023F03F017B681B68BA680A435A607B68E3
:103820001B681B6A23F03F017B685B686A4A93420E
:1038300002D8BB68013309E0BB684FF4967202FB03
:1038400003F3694AA2FB03239B0901337A681268D8
:103850000B4313627B681B68DB6923F44F4222F041
:10386000FF027B685B685C498B4219D8FB68591E74
:103870007B685B685B00B1FBF3F3591C40F6FC739B
:103880000B40002B0AD0FB68591E7B685B685B000D
:10389000B1FBF3F30133C3F30B0351E004234FE017
:1038A0007B689B68002B11D1FB68581E7B685968A8
:1038B0000B465B000B44B0FBF3F30133C3F30B0384
:1038C000002B0CBF01230023DBB212E0FB68581E63
:1038D0007B6859680B469B000B4499000B44B0FB76
:1038E000F3F30133C3F30B03002B0CBF01230023BD
:1038F000DBB2002B01D0012322E07B689B68002B08
:103900000ED1FB68581E7B6859680B465B000B4460
:10391000B0FBF3F30133C3F30B0343F400430FE0B5
:10392000FB68581E7B6859680B469B000B44990046
:103930000B44B0FBF3F30133C3F30B0343F44043F5
:10394000796809681343CB617B681B681B6823F0A7
:10395000C0017B68DA697B681B6A1A437B681B6855
:103960000A431A607B681B689B6823F4034323F0B7
:10397000FF037A6811697A68D26811437A6812681D
:103980000B4393607B681B68DB6823F0FF017B6857
:103990005A697B689B691A437B681B680A43DA6033
:1039A0007B681B681A687B681B6842F001021A601A
:1039B0007B6800221A647B68202283F83D207B68A4
:1039C00000221A637B68002283F83E2000231846F9
:1039D0001037BD4680BD00BFA08601007F841E0059
:1039E000FF083D0083DE1B43D34D621080B588B0D5
:1039F00002AFF8607A601A460B467B8113463B8122
:103A0000FFF730FB7861FB6893F83D30DBB2202B89
:103A100040F0E0807B690093192301227049F86827
:103A200000F00EFE0346002B01D00223D3E0FB681A
:103A300093F83C30012B01D10223CCE0FB6801223A
:103A400083F83C20FB681B681B6803F00103012B13
:103A500007D0FB681B681A68FB681B6842F001020C
:103A60001A60FB681B681A68FB681B6822F4006216
:103A70001A60FB68212283F83D20FB68102283F83E
:103A80003E20FB6800221A64FB687A685A62FB6871
:103A90003A895A85FB685B8D9AB2FB681A85FB6888
:103AA000504ADA6279897B693A6AF86800F0C8FBA3
:103AB0000346002B01D001238DE000233B61FB680E
:103AC0001B685B693B61FB681B689B693B613B69E9
:103AD00066E07A69396AF86800F0CCFE0346002B8C
:103AE0000DD0FB681B6C042B07D1FB681B681A68A0
:103AF000FB681B6842F400721A6001236BE0FB68EC
:103B00005B6A1A78FB681B681A61FB685B6A5A1C5F
:103B1000FB685A62FB685B8D9BB2013B9AB2FB6803
:103B20005A85FB681B8D013B9AB2FB681A85FB68BE
:103B30001B685B6903F00403042B1BD1FB681B8D1E
:103B4000002B17D0FB685B6A1A78FB681B681A6148
:103B5000FB685B6A5A1CFB685A62FB685B8D9BB210
:103B6000013B9AB2FB685A85FB681B8D013B9AB2F8
:103B7000FB681A857A69396AF86800F0C3FE034663
:103B8000002B0DD0FB681B6C042B07D1FB681B6856
:103B90001A68FB681B6842F400721A6001231AE07D
:103BA000FB681B8D002B94D1FB681B681A68FB68AF
:103BB0001B6842F400721A60FB68202283F83D20E3
:103BC000FB68002283F83E20FB68002283F83C203B
:103BD000002300E0022318461837BD4680BD00BF11
:103BE000020010000000FFFF80B588B002AFF8604F
:103BF000084611461A4603467B810B463B81134615
:103C0000FB80FFF72FFA7861FB6893F83D30DBB259
:103C1000202B40F0D9807B690093192301226D4944
:103C2000F86800F00DFD0346002B01D00223CCE024
:103C3000FB6893F83C30012B01D10223C5E0FB68FF
:103C4000012283F83C20FB681B681B6803F001031A
:103C5000012B07D0FB681B681A68FB681B6842F0E1
:103C600001021A60FB681B681A68FB681B6822F473
:103C700000621A60FB68212283F83D20FB68402225
:103C800083F83E20FB6800221A64FB683A6A5A6295
:103C9000FB68BA8C5A85FB685B8D9AB2FB681A8503
:103CA000FB684D4ADA62F8883A8979897B69019321
:103CB000BB6A00930346F86800F044FB0346002B00
:103CC00052D0012381E07A69B96AF86800F0D2FD28
:103CD0000346002B0DD0FB681B6C042B07D1FB683F
:103CE0001B681A68FB681B6842F400721A600123A3
:103CF0006BE0FB685B6A1A78FB681B681A61FB68FB
:103D00005B6A5A1CFB685A62FB681B8D013B9AB2C6
:103D1000FB681A85FB685B8D9BB2013B9AB2FB681E
:103D20005A85FB681B685B6903F00403042B1BD1F5
:103D3000FB681B8D002B17D0FB685B6A1A78FB6849
:103D40001B681A61FB685B6A5A1CFB685A62FB6855
:103D50001B8D013B9AB2FB681A85FB685B8D9BB299
:103D6000013B9AB2FB685A85FB681B8D002BAAD1D8
:103D70007A69B96AF86800F0C5FD0346002B0DD0DA
:103D8000FB681B6C042B07D1FB681B681A68FB6877
:103D90001B6842F400721A60012316E0FB681B687E
:103DA0001A68FB681B6842F400721A60FB682022E4
:103DB00083F83D20FB68002283F83E20FB68002248
:103DC00083F83C20002300E0022318461837BD4644
:103DD00080BD00BF020010000000FFFF80B58CB066
:103DE00002AFF860084611461A4603467B810B462F
:103DF0003B811346FB80FFF735F97862FB6893F847
:103E00003D30DBB2202B40F014827B6A00931923F3
:103E100001227B49F86800F013FC0346002B01D017
:103E2000022307E2FB6893F83C30012B01D1022307
:103E300000E2FB68012283F83C20FB681B681B68DA
:103E400003F00103012B07D0FB681B681A68FB68AD
:103E50001B6842F001021A60FB681B681A68FB6865
:103E60001B6822F400621A60FB68222283F83D205E
:103E7000FB68402283F83E20FB6800221A64FB683E
:103E80003A6B5A62FB68BA8E5A85FB685B8D9AB2B0
:103E9000FB681A85FB685B4ADA62F8883A89798997
:103EA0007B6A0193BB6B00930346F86800F0E0FA6D
:103EB0000346002B01D00123BCE1FB681B8D002BC6
:103EC00013D100233B62FB681B685B693B62FB68A4
:103ED0001B689B693B623B6AFB681B681A68FB684E
:103EE0001B6842F400721A6090E1FB681B8D012B85
:103EF0001BD1FB681B681A68FB681B6822F4806290
:103F00001A600023FB61FB681B685B69FB61FB684F
:103F10001B689B69FB61FB69FB681B681A68FB688F
:103F20001B6842F400721A6070E1FB681B8D022B63
:103F30001BD1FB681B681A68FB681B6822F480624F
:103F40001A60FB681B681A68FB681B6842F4006211
:103F50001A600023BB61FB681B685B69BB61FB687F
:103F60001B689B69BB61BB6950E100237B61FB68F7
:103F70001B685B697B61FB681B689B697B617B6974
:103F800044E1FB681B8D032B00F2F180FB681B8D65
:103F9000012B23D17A6AB96BF86800F0FBFC034669
:103FA000002B01D0012345E1FB681B681A69FB68FF
:103FB0005B6AD2B21A70FB685B6A5A1CFB685A6271
:103FC000FB681B8D013B9AB2FB681A85FB685B8D11
:103FD0009BB2013B9AB2FB685A8517E1FB681B8DC7
:103FE000022B4ED17B6A0093BB6B00220649F86816
:103FF00000F026FB0346002B08D001231AE100BF86
:10400000020010000000FFFF04000100FB681B68B5
:104010001A68FB681B6842F400721A60FB681B6830
:104020001A69FB685B6AD2B21A70FB685B6A5A1C39
:10403000FB685A62FB681B8D013B9AB2FB681A85CC
:10404000FB685B8D9BB2013B9AB2FB685A85FB68AB
:104050001B681A69FB685B6AD2B21A70FB685B6AFC
:104060005A1CFB685A62FB681B8D013B9AB2FB68C5
:104070001A85FB685B8D9BB2013B9AB2FB685A853F
:10408000C4E07B6A0093BB6B00226C49F86800F0C7
:10409000D7FA0346002B01D00123CBE0FB681B6855
:1040A0001A68FB681B6822F480621A60FB681B6850
:1040B0001A69FB685B6AD2B21A70FB685B6A5A1CA9
:1040C000FB685A62FB681B8D013B9AB2FB681A853C
:1040D000FB685B8D9BB2013B9AB2FB685A857B6A99
:1040E0000093BB6B00225549F86800F0A9FA03461B
:1040F000002B01D001239DE0FB681B681A68FB6858
:104100001B6842F400721A60FB681B681A69FB683E
:104110005B6AD2B21A70FB685B6A5A1CFB685A620F
:10412000FB681B8D013B9AB2FB681A85FB685B8DAF
:104130009BB2013B9AB2FB685A85FB681B681A69FF
:10414000FB685B6AD2B21A70FB685B6A5A1CFB6838
:104150005A62FB681B8D013B9AB2FB681A85FB68AB
:104160005B8D9BB2013B9AB2FB685A854EE07A6A3E
:10417000B96BF86800F00EFC0346002B01D0012358
:1041800058E0FB681B681A69FB685B6AD2B21A7058
:10419000FB685B6A5A1CFB685A62FB681B8D013B1B
:1041A0009AB2FB681A85FB685B8D9BB2013B9AB2A1
:1041B000FB685A85FB681B685B6903F00403042BEA
:1041C00024D1FB681B8D032B07D1FB681B681A6881
:1041D000FB681B6822F480621A60FB681B681A691E
:1041E000FB685B6AD2B21A70FB685B6A5A1CFB6898
:1041F0005A62FB681B8D013B9AB2FB681A85FB680B
:104200005B8D9BB2013B9AB2FB685A85FB681B8DA4
:10421000002B7FF4B6AEFB68202283F83D20FB68BC
:10422000002283F83E20FB68002283F83C20002314
:1042300000E0022318462837BD4680BD0400010077
:1042400080B588B002AFF8607A603B600B467B8136
:10425000FB68DB6A7B617B69082B06D07B69012BDD
:1042600003D07B6913F5803F08D1FB681B681A688F
:10427000FB681B6842F480721A600BE0FB681B6BE2
:10428000122B07D1FB681B681A68FB681B6842F495
:1042900080721A603B6800937B6800224FF0011126
:1042A000F86800F0CDF90346002B0DD0FB681B68C1
:1042B0001B6803F48073B3F5807F03D1FB684FF470
:1042C00000721A64032335E0FB681B69B3F5804F65
:1042D00008D17B89DBB21A46FB681B6802F0FE023C
:1042E0001A611BE07B89DB11DBB203F00603DBB252
:1042F00063F00F03DAB2FB681B681A613B687A68E7
:104300000E49F86800F016FA0346002B01D001238D
:1043100010E07B89DAB2FB681B681A613B687A6837
:104320000749F86800F006FA0346002B01D0012384
:1043300000E0002318461837BD4680BD0800010084
:104340000200010080B588B002AFF860084611464F
:104350001A4603467B810B463B811346FB80FB6874
:104360001B681A68FB681B6842F480721A607B6ADB
:1043700000933B6A00224FF00111F86800F060F9E9
:104380000346002B0DD0FB681B681B6803F4807389
:10439000B3F5807F03D1FB684FF400721A640323E6
:1043A0005FE07B89DBB21A46FB681B6802F0FE0205
:1043B0001A617B6A3A6A2D49F86800F0BBF9034636
:1043C000002B01D001234CE000237B61FB681B68BC
:1043D0005B697B61FB681B689B697B617B697A6AAF
:1043E000396AF86800F046FA0346002B0DD0FB68E6
:1043F0001B6C042B07D1FB681B681A68FB681B68E1
:1044000042F400721A6001232BE0FB88012B05D1D6
:104410003B89DAB2FB681B681A6121E03B891B0A01
:104420009BB2DAB2FB681B681A617A6A396AF8686B
:1044300000F020FA0346002B0DD0FB681B6C042B08
:1044400007D1FB681B681A68FB681B6842F400729E
:104450001A60012305E03B89DAB2FB681B681A6128
:10446000002318461837BD4680BD00BF020001007A
:1044700080B588B002AFF860084611461A46034678
:104480007B810B463B811346FB80FB681B681A68E7
:10449000FB681B6842F480621A60FB681B681A683C
:1044A000FB681B6842F480721A607B6A00933B6A67
:1044B00000224FF00111F86800F0C2F80346002B0B
:1044C0000DD0FB681B681B6803F48073B3F5807F15
:1044D00003D1FB684FF400721A640323AAE07B89BE
:1044E000DBB21A46FB681B6802F0FE021A617B6AA7
:1044F0003A6A5249F86800F01DF90346002B01D0D2
:10450000012397E000237B61FB681B685B697B618B
:10451000FB681B689B697B617B697A6A396AF8680A
:1045200000F0A8F90346002B0DD0FB681B6C042B90
:1045300007D1FB681B681A68FB681B6842F40072AD
:104540001A60012376E0FB88012B05D13B89DAB2A2
:10455000FB681B681A6121E03B891B0A9BB2DAB237
:10456000FB681B681A617A6A396AF86800F082F998
:104570000346002B0DD0FB681B6C042B07D1FB6896
:104580001B681A68FB681B6842F400721A600123FA
:1045900050E03B89DAB2FB681B681A617A6A396AB3
:1045A000F86800F067F90346002B0DD0FB681B6C20
:1045B000042B07D1FB681B681A68FB681B6842F470
:1045C00000721A60012335E0FB681B681A68FB68FB
:1045D0001B6842F480721A607B6A00933B6A002277
:1045E0004FF00111F86800F02BF80346002B0DD0B6
:1045F000FB681B681B6803F48073B3F5807F03D1ED
:10460000FB684FF400721A64032313E07B89DBB26A
:1046100043F00103DAB2FB681B681A617B6A3A6AED
:104620000649F86800F086F80346002B01D0012304
:1046300000E0002318461837BD4680BD0200010087
:1046400080B584B000AFF860B9603B601346FB7181
:1046500048E03B68B3F1FF3F44D0FEF703FD02465C
:10466000BB69D31A3A689A4202D33B68002B39D10E
:10467000BB681B0CDBB2012B0DD1FB681B685B69AF
:10468000DA43BB6813409BB2002B0CBF012300230D
:10469000DBB21A460CE0FB681B689B69DA43BB6817
:1046A00013409BB2002B0CBF01230023DBB21A4640
:1046B000FB799A4216D1FB6800221A63FB6820221C
:1046C00083F83D20FB68002283F83E20FB681B6CCA
:1046D00043F02002FB681A64FB68002283F83C2048
:1046E000012323E0BB681B0CDBB2012B0DD1FB685F
:1046F0001B685B69DA43BB6813409BB2002B0CBF9D
:1047000001230023DBB21A460CE0FB681B689B699F
:10471000DA43BB6813409BB2002B0CBF012300237C
:10472000DBB21A46FB799A4293D000231846103721
:10473000BD4680BD80B584B000AFF860B9607A60D6
:104740003B6071E0FB681B685B6903F48063B3F551
:10475000806F23D1FB681B681A68FB681B6842F4F2
:1047600000721A60FB681B686FF480625A61FB6814
:1047700000221A63FB68202283F83D20FB68002298
:1047800083F83E20FB681B6C43F00402FB681A644C
:10479000FB68002283F83C20012367E07B68B3F1CB
:1047A000FF3F41D0FEF75EFC02463B68D31A7A68B1
:1047B0009A4202D37B68002B36D1BB681B0CDBB25C
:1047C000012B0CD1FB681B685B69DA43BB681340A3
:1047D0009BB2002B14BF01230023DBB20BE0FB686C
:1047E0001B689B69DA43BB6813409BB2002B14BF64
:1047F00001230023DBB2002B16D0FB6800221A63D2
:10480000FB68202283F83D20FB68002283F83E20CD
:10481000FB681B6C43F02002FB681A64FB680022F3
:1048200083F83C20012321E0BB681B0CDBB2012B89
:104830000CD1FB681B685B69DA43BB6813409BB211
:10484000002B14BF01230023DBB20BE0FB681B68C5
:104850009B69DA43BB6813409BB2002B14BF012352
:104860000023DBB2002B7FF46DAF00231846103716
:10487000BD4680BD80B584B000AFF860B9607A6095
:1048800034E0F86800F0E3F80346002B01D0012380
:1048900034E0BB68B3F1FF3F28D0FEF7E3FB0246EC
:1048A0007B68D31ABA689A4202D3BB68002B1DD129
:1048B000FB681B685B6903F08003802B16D0FB68E4
:1048C00000221A63FB68202283F83D20FB68002247
:1048D00083F83E20FB681B6C43F02002FB681A64DF
:1048E000FB68002283F83C20012307E0FB681B687B
:1048F0005B6903F08003802BC3D100231846103777
:10490000BD4680BD80B584B000AFF860B9607A6004
:1049100034E0F86800F09BF80346002B01D0012337
:1049200034E0BB68B3F1FF3F28D0FEF79BFB0246A3
:104930007B68D31ABA689A4202D3BB68002B1DD198
:10494000FB681B685B6903F00403042B16D0FB684B
:1049500000221A63FB68202283F83D20FB680022B6
:1049600083F83E20FB681B6C43F02002FB681A644E
:10497000FB68002283F83C20012307E0FB681B68EA
:104980005B6903F00403042BC3D1002318461037DE
:10499000BD4680BD80B584B000AFF860B9607A6074
:1049A00049E0FB681B685B6903F01003102B19D109
:1049B000FB681B686FF010025A61FB6800221A63E3
:1049C000FB68202283F83D20FB68002283F83E200C
:1049D000FB681A6CFB681A64FB68002283F83C20B1
:1049E000012330E0FEF73EFB02467B68D31ABA682B
:1049F0009A4202D3BB68002B1DD1FB681B685B6920
:104A000003F04003402B16D0FB6800221A63FB68BA
:104A1000202283F83D20FB68002283F83E20FB68BB
:104A20001B6C43F02002FB681A64FB68002283F8C9
:104A30003C20012307E0FB681B685B6903F040032F
:104A4000402BAED1002318461037BD4680BD80B440
:104A500083B000AF78607B681B685B6903F4806398
:104A6000B3F5806F1BD17B681B686FF480625A615D
:104A70007B6800221A637B68202283F83D207B68D4
:104A8000002283F83E207B681B6C43F004027B68A5
:104A90001A647B68002283F83C20012300E0002395
:104AA00018460C37BD465DF8047B704780B584B06E
:104AB00000AF786039607B68002B01D10123CCE026
:104AC000684B1B6803F00F033A689A420CD9654B98
:104AD0003A68D2B21A70634B1B6803F00F033A684E
:104AE0009A4201D00123B8E07B681B6803F00203FF
:104AF000002B20D07B681B6803F00403002B05D03B
:104B0000594B9B68584A43F4E05393607B681B6899
:104B100003F00803002B05D0534B9B68524A43F423
:104B200060439360504B9B6823F0F0027B689B6866
:104B30004D4913438B607B681B6803F00103002B16
:104B400044D07B685B68012B07D1474B1B6803F49B
:104B50000033002B19D101237FE07B685B68022BB7
:104B600003D07B685B68032B07D13F4B1B6803F0C6
:104B70000073002B09D101236FE03B4B1B6803F04E
:104B80000203002B01D1012367E0374B9B6823F020
:104B900003027B685B68344913438B60FEF762FA5B
:104BA000F8600AE0FEF75EFA0246FB68D31A41F2AB
:104BB0008832934201D903234FE02B4B9B6803F0CB
:104BC0000C027B685B689B009A42EBD1254B1B680B
:104BD00003F00F033A689A420CD2224B3A68D2B2E1
:104BE0001A70204B1B6803F00F033A689A4201D0F9
:104BF000012332E07B681B6803F00403002B08D01C
:104C0000194B9B6823F4E0527B68DB681649134319
:104C10008B607B681B6803F00803002B09D0124BE4
:104C20009B6823F460427B681B69DB000E491343D9
:104C30008B6000F055F802460B4B9B681B0903F094
:104C40000F030A49CB5C22FA03F3094A1360094BAC
:104C50001B681846FEF7C2F9002318461037BD46F8
:104C600080BD00BF003C024000380240A87B000825
:104C7000040000200800002080B400AF034B1B6834
:104C80001846BD465DF8047B704700BF0400002055
:104C900080B500AFFFF7F0FF0246054B9B689B0A0B
:104CA00003F007030349CB5C22FA03F3184680BDE7
:104CB00000380240B87B000880B500AFFFF7DCFF8A
:104CC0000246054B9B685B0B03F007030349CB5C73
:104CD00022FA03F3184680BD00380240B87B000872
:104CE0002DE9B04FA6B000AF0023C7F88C300023E9
:104CF000C7F894300023C7F888300023C7F8843001
:104D00000023C7F89030C74B9B6803F00C030C2BB3
:104D100000F27C8101A252F823F000BF514D00083F
:104D20000D5000080D5000080D500008594D0008A6
:104D30000D5000080D5000080D500008614D00088E
:104D40000D5000080D5000080D500008C94E000815
:104D5000B54BC7F890305DE1B44BC7F8903059E1DE
:104D6000B04B5B6803F03F03C7F88C30AD4B5B681A
:104D700003F48003002B30D0AA4B5B689B09002210
:104D8000BB66FA66BB6EC3F308033B6600237B6613
:104D9000A64BD7E918452A4603FB02F20023214619
:104DA00001FB03F31344A14A2146A1FB0221F96749
:104DB000BA67FA6F1344FB67D7F88C300022BB65E3
:104DC000FA65D7E91623D7E91E01FBF779FA0246FF
:104DD0000B461346C7F8943064E0924B5B689B091E
:104DE00000223B657A653B6DC3F30803BB64002377
:104DF000FB64D7E9124522462B464FF000004FF0E6
:104E00000001590141EAD261500102460B46214698
:104E1000511A3961294663EB01037B614FF00002AF
:104E20004FF00003D7E904AB59468B01514643EAE2
:104E3000916351468A015146B2EB0108594663EB32
:104E400001094FF000024FF000034FEAC90343EAA3
:104E500058734FEAC80290469946234618EB03035D
:104E6000BB602B4649EB0303FB604FF000024FF0A1
:104E70000003D7E9024529468B02214643EA9153B4
:104E800021468A0210461946D7F88C3000223B642E
:104E90007A64D7E91023FBF713FA02460B46134650
:104EA000C7F894305F4B5B681B0C03F003030133BE
:104EB0005B00C7F88830D7F89420D7F88830B2FB69
:104EC000F3F3C7F89030A5E0564B5B6803F03F035F
:104ED000C7F88C30534B5B6803F48003002B29D058
:104EE000504B5B689B090022BB63FA63BB6BC3F347
:104EF000080000214D4B03FB01F2002300FB03F3EC
:104F000013444A4AA0FB022179673A677A6F134437
:104F10007B67D7F88C3000223B637A63D7E90C2398
:104F2000D7E91C01FBF7CCF902460B461346C7F83C
:104F300094305BE03B4B5B689B090022BB62FA62EA
:104F4000BB6AC3F308033B6200237B62D7E908898D
:104F500042464B464FF000004FF00001590141EA34
:104F6000D261500102460B464146B2EB010A494666
:104F700063EB010B4FF000024FF000034FEA8B137D
:104F800043EA9A634FEA8A12B2EB0A0463EB0B0519
:104F90004FF000024FF00003EB0043EA5473E200CD
:104FA00014461D464346E3183B604B4645EB03035E
:104FB0007B604FF000024FF00003D7E9004529461F
:104FC0008B02214643EA915321468A021046194634
:104FD000D7F88C300022BB61FA61D7E90623FBF7D2
:104FE0006FF902460B461346C7F894300D4B5B68C9
:104FF0001B0F03F00703C7F88430D7F89420D7F8C5
:105000008430B2FBF3F3C7F8903003E0064BC7F8E7
:10501000903000BFD7F8903018469837BD46BDE8AD
:10502000B08F00BF003802400024F400001BB7001E
:1050300080B586B000AF78607B68002B01D101237A
:105040008DE27B681B6803F00103002B00F0838076
:10505000944B9B6803F00C03042B19D0914B9B6875
:1050600003F00C03082B06D18E4B5B6803F480031E
:10507000B3F5800F0CD08B4B9B6803F00C030C2B0B
:1050800012D1884B5B6803F48003B3F5800F0BD11A
:10509000844B1B6803F40033002B5BD07B685B6898
:1050A000002B57D101235AE27B685B68B3F5803F40
:1050B00006D17C4B1B687B4A43F4803313601DE0B0
:1050C0007B685B68B3F5A02F0CD1764B1B68754AE3
:1050D00043F480231360734B1B68724A43F480339C
:1050E00013600BE06F4B1B686E4A23F48033136030
:1050F0006C4B1B686B4A23F4802313607B685B68EE
:10510000002B13D0FDF7AEFF386108E0FDF7AAFFD2
:1051100002463B69D31A642B01D903231FE2614B7A
:105120001B6803F40033002BF0D014E0FDF79AFF66
:10513000386108E0FDF796FF02463B69D31A642BFD
:1051400001D903230BE2574B1B6803F40033002BF8
:10515000F0D100E000BF7B681B6803F00203002B66
:105160006FD0504B9B6803F00C03002B17D04D4BB6
:105170009B6803F00C03082B05D14A4B5B6803F4D2
:105180008003002B0BD0474B9B6803F00C030C2BC8
:105190001CD1444B5B6803F48003002B16D1414BB8
:1051A0001B6803F00203002B05D07B68DB68012B32
:1051B00001D00123D3E13B4B1B6823F0F8027B684D
:1051C0001B69DB00374913430B603AE07B68DB68FF
:1051D000002B20D0344B01221A60FDF743FF3861C9
:1051E00008E0FDF73FFF02463B69D31A022B01D9C5
:1051F0000323B4E12B4B1B6803F00203002BF0D018
:10520000284B1B6823F0F8027B681B69DB002549EB
:1052100013430B6015E0244B00221A60FDF722FFB8
:10522000386108E0FDF71EFF02463B69D31A022BE6
:1052300001D9032393E11B4B1B6803F00203002BEE
:10524000F0D17B681B6803F00803002B36D07B6825
:105250005B69002B16D0154B01221A60FDF702FF87
:10526000386108E0FDF7FEFE02463B69D31A022BC7
:1052700001D9032373E10B4B5B6F03F00203002B97
:10528000F0D01BE0094B00221A60FDF7EBFE3861FD
:105290000EE0FDF7E7FE02463B69D31A022B07D961
:1052A00003235CE10038024000004742800E474281
:1052B0008A4B5B6F03F00203002BEAD17B681B680B
:1052C00003F00403002B00F097800023FB75834B51
:1052D0001B6C03F08053002B0FD10023BB607F4B6E
:1052E0001B6C7E4A43F0805313647C4B1B6C03F0B1
:1052F0008053BB60BB680123FB75794B1B6803F4CB
:105300008073002B18D1764B1B68754A43F4807369
:105310001360FDF7A7FE386108E0FDF7A3FE024623
:105320003B69D31A022B01D9032318E16C4B1B688C
:1053300003F48073002BF0D07B689B68012B06D1AF
:10534000664B1B6F654A43F0010313671CE07B68E3
:105350009B68052B0CD1614B1B6F604A43F0040323
:1053600013675E4B1B6F5D4A43F0010313670BE04D
:105370005A4B1B6F594A23F001031367574B1B6F9E
:10538000564A23F0040313677B689B68002B15D0F3
:10539000FDF768FE38610AE0FDF764FE02463B69EE
:1053A000D31A41F28832934201D90323D7E04B4B01
:1053B0001B6F03F00203002BEED014E0FDF752FE4A
:1053C00038610AE0FDF74EFE02463B69D31A41F20E
:1053D0008832934201D90323C1E0404B1B6F03F095
:1053E0000203002BEED1FB7D012B05D13B4B1B6C47
:1053F0003A4A23F0805313647B689B69002B00F0CA
:10540000AD80364B9B6803F00C03082B60D07B68A3
:105410009B69022B45D1334B00221A60FDF722FE17
:10542000386108E0FDF71EFE02463B69D31A022BE5
:1054300001D9032393E0294B1B6803F00073002B71
:10544000F0D17B68DA697B681B6A1A437B685B6A08
:105450009B011A437B689B6A5B08013B1B041A4350
:105460007B68DB6A1B061A437B681B6B1B071B49A7
:1054700013434B601B4B01221A60FDF7F3FD3861AB
:1054800008E0FDF7EFFD02463B69D31A022B01D974
:10549000032364E0114B1B6803F00073002BF0D072
:1054A0005CE0104B00221A60FDF7DCFD386108E07B
:1054B000FDF7D8FD02463B69D31A022B01D903231D
:1054C0004DE0064B1B6803F00073002BF0D145E064
:1054D0007B689B69012B07D1012340E00038024023
:1054E00000700040600047421F4B5B68FB607B68B8
:1054F0009B69012B30D0FB6803F480027B68DB6979
:105500009A4229D1FB6803F03F027B681B6A9A42EA
:1055100022D1FA6847F6C07313407A68526A920142
:10552000934219D1FB6803F440327B689B6A5B08A5
:10553000013B1B049A420FD1FB6803F070627B6849
:10554000DB6A1B069A4207D1FB6803F0E0427B68E6
:105550001B6B1B079A4201D0012300E00023184671
:105560001837BD4680BD00BF0038024080B582B00C
:1055700000AF78607B68002B01D1012341E07B689C
:1055800093F83D30DBB2002B06D17B68002283F814
:105590003C207868FDF746FB7B68022283F83D20BB
:1055A0007B681A687B6804331946104600F07EFA5F
:1055B0007B68012283F846207B68012283F83E2025
:1055C0007B68012283F83F207B68012283F840201A
:1055D0007B68012283F841207B68012283F8422006
:1055E0007B68012283F843207B68012283F84420F2
:1055F0007B68012283F845207B68012283F83D20E7
:10560000002318460837BD4680BD000080B485B031
:1056100000AF78607B6893F83D30DBB2012B01D09E
:1056200001234EE07B68022283F83D207B681B68E3
:10563000DA687B681B6842F00102DA607B681B68ED
:10564000234A934222D07B681B68B3F1804F1DD060
:105650007B681B681F4A934218D07B681B681E4AF0
:10566000934213D07B681B681C4A93420ED07B6820
:105670001B681B4A934209D07B681B68194A9342F6
:1056800004D07B681B68184A934211D17B681B6861
:105690009B6803F00703FB60FB68062B10D07B6858
:1056A0001B681A687B681B6842F001021A6007E0F9
:1056B0007B681B681A687B681B6842F001021A60ED
:1056C000002318461437BD465DF8047B704700BFC1
:1056D000000001400004004000080040000C0040B1
:1056E00000040140004001400018004080B584B033
:1056F00000AF78607B681B68DB68FB607B681B68B9
:105700001B69BB60BB6803F00203002B20D0FB6861
:1057100003F00203002B1BD07B681B686FF00202B2
:105720001A617B6801221A777B681B689B6903F00A
:105730000303002B03D0786800F099F905E078683E
:1057400000F08BF9786800F09CF97B6800221A77EA
:10575000BB6803F00403002B20D0FB6803F00403B4
:10576000002B1BD07B681B686FF004021A617B68FA
:1057700002221A777B681B689B6903F44073002B35
:1057800003D0786800F073F905E0786800F065F9F7
:10579000786800F076F97B6800221A77BB6803F01E
:1057A0000803002B20D0FB6803F00803002B1BD05C
:1057B0007B681B686FF008021A617B6804221A7705
:1057C0007B681B68DB6903F00303002B03D0786858
:1057D00000F04DF905E0786800F03FF9786800F0D6
:1057E00050F97B6800221A77BB6803F01003002B86
:1057F00020D0FB6803F01003002B1BD07B681B68D4
:105800006FF010021A617B6808221A777B681B68A8
:10581000DB6903F44073002B03D0786800F027F9AC
:1058200005E0786800F019F9786800F02AF97B68DB
:1058300000221A77BB6803F00103002B0CD0FB6831
:1058400003F00103002B07D07B681B686FF0010297
:105850001A617868FDF7DCF8BB6803F08003002B61
:105860000CD0FB6803F08003002B07D07B681B681B
:105870006FF080021A61786800F0DEFABB6803F00E
:105880004003002B0CD0FB6803F04003002B07D033
:105890007B681B686FF040021A61786800F0FBF8C3
:1058A000BB6803F02003002B0CD0FB6803F020033F
:1058B000002B07D07B681B686FF020021A617868A4
:1058C00000F0B0FA00BF1037BD4680BD80B584B08F
:1058D00000AF786039600023FB737B6893F83C303D
:1058E000012B01D10223B4E07B68012283F83C2024
:1058F0007B68022283F83D207B681B689B68BB6045
:10590000BB6823F07703BB60BB6823F47F43BB60B5
:105910007B681B68BA689A603B681B68B3F5005FD8
:105920003ED0B3F5005F00F28780B3F5805F00F0F2
:105930008680B3F5805F7FD8702B1AD0702B7BD810
:10594000602B50D0602B77D8502B3CD0502B73D885
:10595000402B58D0402B6FD8302B64D0302B6BD8D5
:10596000202B60D0202B67D8002B5CD0102B5AD076
:1059700062E07B6818683B6899683B685A683B68D6
:10598000DB6800F0B3F97B681B689B68BB60BB6891
:1059900043F07703BB607B681B68BA689A604FE08E
:1059A0007B6818683B6899683B685A683B68DB68A5
:1059B00000F09CF97B681B689A687B681B6842F45E
:1059C00080429A603CE07B6818683B6859683B6895
:1059D000DB681A4600F010F97B681B6850211846F6
:1059E00000F069F92CE07B6818683B6859683B68EF
:1059F000DB681A4600F02FF97B681B6860211846A7
:105A000000F059F91CE07B6818683B6859683B68EE
:105A1000DB681A4600F0F0F87B681B6840211846E6
:105A200000F049F90CE07B681A683B681B6819466E
:105A3000104600F040F903E00123FB7300E000BFD3
:105A40007B68012283F83D207B68002283F83C209C
:105A5000FB7B18461037BD4680BD80B483B000AFD5
:105A6000786000BF0C37BD465DF8047B704780B49A
:105A700083B000AF786000BF0C37BD465DF8047B93
:105A8000704780B483B000AF786000BF0C37BD466C
:105A90005DF8047B704780B483B000AF786000BFCE
:105AA0000C37BD465DF8047B7047000080B485B0BC
:105AB00000AF786039607B681B68FB607B68434A95
:105AC000934213D07B68B3F1804F0FD07B68404A7C
:105AD00093420BD07B683F4A934207D07B683E4A93
